:03000000020003F8
:0C000300787FE4F6D8FD75810902004A00
:06011A00010900010801CB
:10010400EF1FAA0670011E4A600BE4FDEDC394784C
:0501140050EE0D80F724
:0101190022C3
:10008F00E50824FE602114603A14604E2403706466
:10009F00D290C291C292C293C294D2957F107E2702
:1000AF00120104750802227F887E13120104B29197
:1000BF00C2900509E509640A703AD292E4F5097510
:1000CF00080322C290C291D292D293C294C2957F5A
:1000DF00107E27120104750804227F887E131201F7
:1000EF0004B294C2930509E509B40A08D295E4F560
:0500FF00097508012253
:0501210012008F80FBBD
:10000F00020121E493A3F8E493A34003F68001F2E5
:10001F0008DFF48029E493A3F85407240CC8C333F2
:10002F00C4540F4420C8834004F456800146F6DFC1
:10003F00E4800B010204081020408090011AE47E36
:10004F00019360BCA3FF543F30E509541FFEE493B6
:10005F00A360010ECF54C025E060A840B8E493A37D
:10006F00FAE493A3F8E493A3C8C582C8CAC583CAA8
:10007F00F0A3C8C582C8CAC583CADFE9DEE780BE60
:0101200000DE
:00000001FF
