:03000000020006F5
:0C000600787FE4F6D8FD75811202004DF1
:0F015700040D0000000004090000000001080072
:10010200D288D2AFD2A8758080E4F511F512AF8003
:100112007801EF08800123D8FDF5807F107E271239
:1001220001370512E51270020511C39407E5119417
:050132000040DB80D15C
:0300030002009266
:10009200C0E0C0F0C083C082C0D075D000C000C034
:1000A20001C002C003C004C005C006C00720B235AB
:1000B2007FE87E0312013720B22B75110075120002
:1000C200AF807801EF08800103D8FDF5807FE87EDC
:1000D200031201370512E51270020511C39407E5F8
:1000E20011940040DBD007D006D005D004D003D055
:1000F20002D001D000D0D0D082D083D0F0D0E03274
:10013700D3EF9400EE6480948040147D6E7C00EDD4
:0F0147001D70011CED4C70F7EF1F70E41E80E17E
:010156002286
:10001200020102E493A3F8E493A34003F68001F201
:1000220008DFF48029E493A3F85407240CC8C333EF
:10003200C4540F4420C8834004F456800146F6DFBE
:10004200E4800B0102040810204080900157E47EF6
:10005200019360BCA3FF543F30E509541FFEE493B3
:10006200A360010ECF54C025E060A840B8E493A37A
:10007200FAE493A3F8E493A3C8C582C8CAC583CAA5
:10008200F0A3C8C582C8CAC583CADFE9DEE780BE5D
:010166000098
:00000001FF
