:0300000002000EED
:0C000E00787FE4F6D8FD758112020055E1
:0F015700040D0000000004090000000001080072
:10009A00E4F511120132D2A9D2AFC3E510950CFFD3
:1000AA00E50F950BFEE50E950AFDE50D9509FCE4B5
:1000BA007B64FAF9F8D3120146504085100C850F7B
:1000CA000B850E0A850D09AF12A2B6E433F512FDAF
:1000DA003395E04D7020EF3395E0FEEF64014E70EA
:1000EA0015AF08EF3395E04F70B0B2B7A2B7B3922D
:1000FA00B575080180A4E4F508809F20B49CD2B7A6
:04010A00D2B5809654
:10013200438E805389F0438901758ACD758CD4C270
:040142008DD28C22AC
:03000B0002010EE1
:10010E00C0E0C0D0758ACD758CD4E5102401F510F1
:10011E00E4350FF50FE4350EF50EE4350DF50DD083
:04012E00D0D0E0321B
:10001A0002009AE493A3F8E493A34003F68001F262
:10002A0008DFF48029E493A3F85407240CC8C333E7
:10003A00C4540F4420C8834004F456800146F6DFB6
:10004A00E4800B0102040810204080900157E47EEE
:10005A00019360BCA3FF543F30E509541FFEE493AB
:10006A00A360010ECF54C025E060A840B8E493A372
:10007A00FAE493A3F8E493A3C8C582C8CAC583CA9D
:10008A00F0A3C8C582C8CAC583CADFE9DEE780BE55
:010166000098
:10014600EB9FF5F0EA9E42F0E99D42F0E89C45F00F
:010156002286
:00000001FF
