:03000000020026D5
:0C002600787FE4F6D8FD75812002006DA3
:10012400040800000000041100000000021B00008D
:0F01340002150000011700C101C10002180000F0
:1000B200120144120003D2AFD2AC3001FDAF1705DA
:1000C20017740C2FF8A699E50DFE7C00E4250CF5BB
:1000D2001CEC3EF51BE51C2401F516E4351BF51559
:0F00E200F51B85161CD200E51BF599C20180CBDA
:1001440043FE805389F0758A91758CFFC28DD28CE1
:010154002288
:03001B000201558A
:07015500758A91758CFF32E1
:1000030053877F75985043FE0475FFDC43FE01431D
:03001300FE1022BA
:030023000200F1E7
:1000F100C0E0C0D075D000309824C298AF99751B6C
:10010100008F1C740C2517F8E6B40A05751700D288
:100111000130990AC299300005851C99C200D0D0DE
:03012100D0E032F9
:100032000200B2E493A3F8E493A34003F68001F232
:1000420008DFF48029E493A3F85407240CC8C333CF
:10005200C4540F4420C8834004F456800146F6DF9E
:10006200E4800B0102040810204080900124E47E09
:10007200019360BCA3FF543F30E509541FFEE49393
:10008200A360010ECF54C025E060A840B8E493A35A
:10009200FAE493A3F8E493A3C8C582C8CAC583CA85
:1000A200F0A3C8C582C8CAC583CADFE9DEE780BE3D
:0101430000BB
:00000001FF
